:020000040800F2
:1000000040150020A1010008F32900081925000867
:10001000F129000891040008813100080000000067
:10002000000000000000000000000000CF2A0008CF
:100030006905000800000000CD2A0008D12A000848
:10004000BB010008BB010008BB010008BB010008A0
:10005000BB010008BB010008BB010008BB01000890
:10006000BB010008BB010008BB010008BB01000880
:10007000BB010008BB010008BB010008BB01000870
:1000800095040008A1040008BB010008BB0100089A
:10009000BB010008BB010008BB010008BB01000850
:1000A000BB010008BB010008BB010008BB01000840
:1000B000BB010008BB010008BB010008BB01000830
:1000C000BB010008BB010008BB010008BB01000820
:1000D000BB010008BB01000869310008BB01000832
:1000E000BB010008BB010008BB010008BB01000800
:1000F000BB010008BB010008BB010008BB010008F0
:10010000BB010008BB010008792B0008BB010008F7
:10011000BB010008BB010008BB010008BB010008CF
:10012000AD040008BB010008BB010008BB010008CA
:10013000BB0100080000000000000000BB01000837
:10014000BB010008BB010008BB010008BB0100089F
:10015000BB010008B9040008BB01000875310008A4
:10016000BB010008BB010008BB010008BB0100087F
:10017000BB010008BB0100080000000000000000F7
:10018000BB010008BB010008DFF810D000F092F8B6
:100190000048004751330008AFF3008040150020AD
:1001A0000648804706480047FEE7FEE7FEE7FEE711
:1001B000FEE7FEE7FEE7FEE7FEE7FEE7692B000845
:1001C000890100082DE9F05F0546002092469B4614
:1001D00088460646814640241BE02846414647465D
:1001E000224600F057F853465A46C01A914110D3A0
:1001F00011461846224600F03EF82D1A67EB01081A
:100200004F4622460120002100F035F817EB000987
:100210004E41201EA4F10104DFDC484631462A4647
:100220004346BDE8F09FD2B201E000F8012B491E21
:10023000FBD270470022F6E710B513460A46044683
:100240001946FFF7F0FF204610BD30B50B460146BA
:1002500000202022012409E021FA02F59D4205D365
:1002600003FA02F5491B04FA02F52844151EA2F10F
:100270000102F1DC30BD202A04DB203A00FA02F151
:10028000002070479140C2F1200320FA03F3194384
:1002900090407047202A04DB203A21FA02F0002126
:1002A000704721FA02F3D040C2F120029140084386
:1002B00019467047064C074D06E0E06840F0010320
:1002C00094E8070098471034AC42F6D3FFF760FF7C
:1002D0003C3500085C35000810B50146806B026CA7
:1002E00012F0500F05D0026CD20626D500F017FB95
:1002F00010BD016C41F40071016401688A6812F05C
:10030000405F17D1027EAAB9CA6A12F4700F02D0F8
:100310008A6852050ED44A6822F020024A60016CB5
:1003200021F480710164016CC90403D4016C41F0B3
:100330000101016400F062FA10BD806BC26CBDE87F
:1003400010400846104710B5806B40210164416C95
:1003500041F00401416400F0E2FA10BD10B5806B79
:1003600000F0DCFA10BD0000464910B54A6822F4DE
:1003700040324A604A6843681A434A6001684A68E2
:1003800022F480724A6001684A68036942EA0322E3
:100390004A6001684A6822F040724A6001684A680F
:1003A00083681A434A6001688A6822F400628A609E
:1003B00001688A68C3681A438A60816A6FF0706254
:1003C000D14201688A6822F070628A6001688A6896
:1003D0000CD0836A1A438A6001688A6822F040520E
:1003E0008A6001688A68C36A1A4301E022F04052B9
:1003F0008A6001688A6822F002028A6001688A685D
:10040000037E42EA43028A6090F8201000290168C6
:100410004A680FD042F400624A6001684A6822F4D8
:1004200060424A6001684A68174C436A04EB4333F0
:100430001A4301E022F400624A600168CA6A22F4A9
:100440007002CA620168CA6A838B104C04EB0353C2
:100450001A43CA6201688A6822F400728A600168DD
:100460008A6890F8303042EA43228A6001688A68DC
:1004700022F480628A6001688A68406942EA8020CA
:10048000886010BD0023014000E0FFFF0000F0FF86
:10049000FEE70000014800F0CFBB0000E4020020AE
:1004A000014800F0C9BB000044030020014800F0EF
:1004B000C3BB00008C000020014800F0BDBB000061
:1004C000A403002001681823CAB2103AB2FBF3F269
:1004D000054B6FF30901032A9B5CC36500D9091D15
:1004E0008165084670470000C434000810B5014615
:1004F00000208B698A6A4FF0C07453B1B3F5005F76
:1005000015D072B1012A0CD0022A0AD0032A09D1CF
:1005100004E01AB1012A06D0022A03D1C96AC9012E
:1005200000D5012010BDC96AA142FAD010BD002A31
:10053000F7D0012AF2D0022AF3D0032AF3D010BD5B
:1005400030B50468256825F480252560046863605B
:100550008368402B036803D099600068C26030BD97
:100560009A600068C16030BD704772B6FEE7000057
:1005700010EE100A1E49884201DB6420704710EE1D
:10058000100A1C49884230DD1B4A002002EBC001E2
:10059000D1ED020AF4EEC00AF1EE10FA22D8D1ED44
:1005A000000AF4EEC00AF1EE10FA1BDBD1ED020AEC
:1005B00091ED012A91ED031A02EBC00030EE600AC2
:1005C00032EE412AD0ED001A20EE020A71EEE01A56
:1005D000C0EE210A30EE810ABCEEC00A10EE100A0D
:1005E000C0B27047401C0A28D0DB002070470000D2
:1005F000666606410000C040E434000870B5234937
:10060000234800F04DF8214BC826083B744250B1F6
:100610001988081A00B21880C82801DB1E8002E081
:10062000A04200DC1C80194D1A48A91C00F038F8C3
:1006300050B15988081A00B25880C82801DB5E8082
:1006400002E0A04200DC5C80291D134800F028F87D
:1006500050B19988084400B29880C82801DB9E8078
:1006600002E0A04200DC9C80A91D0C4800F018F8B4
:10067000002806D0D988081A00B2D880C82801DB23
:10068000DE8070BDA042FCDCDC8070BD300000204C
:10069000C4010020EC000020340100207C01002077
:1006A0000068426A08880A80101A00B27047000089
:1006B00078B50024009490F83C20012A19D001223A
:1006C00080F83C200A6807230568092A13D9EE68D8
:1006D0000A3A02EB420293409E43EE600B788A682E
:1006E0000A3B03EB43039A400368DD682A43DA6060
:1006F00010E0022078BD2E6902EB420293409E4337
:100700002E610B788A6803EB43039A4003681D69E6
:100710002A431A614A681F23072A13D205686E6BA1
:10072000521E02EB820293409E436E630B790A884D
:100730005B1E92B203EB83039A4003685D6B2A430E
:100740005A6327E005680D2A12D22E6BD21F02EBE6
:10075000820293409E432E630B790A88DB1F92B27C
:1007600003EB83039A4003681D6B2A431A6311E06D
:10077000EE6A0D3A02EB820293409E43EE620B79E1
:100780000A880D3B92B203EB83039A400368DD6A4B
:100790002A43DA62164B0568144A9D4206D10D6859
:1007A000122D03D1556845F48005556005689D42BA
:1007B00018D10B68102B01D0112B13D1536843F4BF
:1007C00000035360096810290CD10A490A4A0968D4
:1007D000B1FBF2F101EB8101490000E0491E0091FB
:1007E0000029FBD180F83C40002078BD0023014067
:1007F000002001400C00002040420F0000B50068BE
:10080000404988427DD141499FED3F0A0888A0F5C3
:10081000006002B23E48B0F9003000EE903AF8EEC7
:10082000E00A20EE801A00EE902AF8EEE01ADFEDE2
:10083000390A01EEA01ABDEEC11A11EE102A02808B
:10084000B0F902304A8801EE103AA2F5006212B205
:10085000B8EEC11A61EE001A01EE102AB8EEC11A04
:1008600041EE201ABDEEE11A11EE102A4280B0F9D5
:1008700004308A8801EE103AA2F500625242B8EEC6
:10088000C11A12B261EE001A01EE102AB8EEC11AB6
:1008900041EE201ABDEEE11A11EE102A8280B0F965
:1008A0000630CA8801EE103AA2F623025242B8EE90
:1008B000C11A12B2164B61EE001A01EE102A083B63
:1008C000B8EEC11A41EE201ABDEEE11ADFED121AA0
:1008D00011EE102AC280088901EE100AB8EE411A02
:1008E00021EE211AF0EE081A21EE211AD3ED011A99
:1008F00021EE800A01EE200A83ED010AFFF738FE9F
:10090000187000BD002001406666663F04040020A8
:1009100018000020D0CCCC3D6740533A7047704758
:1009200070B504004FF0000503D0206C002610B114
:1009300007E0012070BD204600F01CF8666484F8D2
:100940003C60206CC00610D4206C20F4885040F02D
:10095000020020642046FFF707FD6664206C20F04B
:10096000020040F00100206400E0012584F83C60B2
:10097000284670BD70B586B0064614216846FFF75C
:1009800059FC24493068884242D123480025016837
:1009900041F48071016000681F4900F480701439CF
:1009A0000590086840F004000860086800F0040042
:1009B0000590086840F0010008600868032400F012
:1009C000010005900B208DE831006946134800F0C6
:1009D000A5FA30208DE831006946114800F09EFAF2
:1009E000114C1048C4E900050015A560C4E9035086
:1009F000400060618000A0614011C4E90705204605
:100A0000656200F0E9F908B1FFF7AFFDB463A663D2
:100A100006B070BD0020014044380240000802408A
:100A200000000240106402408C000020F8B504462B
:100A300000200E46009094F83C10012907D00121B7
:100A400084F83C1021688B68DB0702D011E002209B
:100A5000F8BD8B6843F001038B604049404B096847
:100A6000B1FBF3F101EB410100E0491E00910029C7
:100A7000FBD121688B68DB0503D58B6823F4807379
:100A80008B6021688B68DB075DD0236C40F20165C9
:100A9000AB4343F4807323644968490505D5216C51
:100AA00021F4005141F480512164216CC90404D522
:100AB000616C21F00601616400E0606484F83C0030
:100AC000A16B2948274DC863A16B28480864A16B16
:100AD0002748C86421686FF02200086020684168D8
:100AE00041F0806141602068816841F480718160DB
:100AF0002168134632464C31A06B00F0D7F9686884
:100B00001C49C006206806D0884224D1816811F0B3
:100B1000405F13D01FE08842F8D0174A904203D1BB
:100B2000D1F80423D206F1D0144A904213D1D1F85F
:100B3000041301F01F011029E8D30CE0816841F093
:100B40008041816007E0206C40F010002064606C00
:100B500040F0010060640020F8BD00000C0000209F
:100B600040420F0000230140D90200085D03000845
:100B700047030008002001400021014000220140FD
:100B80002DE9F0410446876D00F0D2FA064694F84C
:100B900035000025022806D08020606584F8345096
:100BA0000120BDE8F0812068016821F01601016094
:100BB0002068416921F080014161206C08B9A06C76
:100BC00020B12068016821F00801016020680168F7
:100BD00021F0010101600CE000F0AAFA801B052859
:100BE00007D920206065032084F8350084F834504C
:100BF000D7E720680068C007EED194F85C103F206A
:100C00008840B860012084F8350084F83450002012
:100C1000C7E790F83510022903D0802141650120F3
:100C20007047052180F835100068016821F0010146
:100C300001600020704700002DE9F84304464FF0A2
:100C40000009CDF8009063484FF41651A56D006877
:100C5000B0FBF1F72E6894F85C10082000FA01F15F
:100C600031420FD021680A6852070BD50A6822F07A
:100C700004020A6094F85C108840A860606D40F03F
:100C80000100606594F85C104FF0010808FA01F06B
:100C9000304208D021684969090604D5A860606D12
:100CA00040F00200606594F85C10042088403042F7
:100CB00008D021680968890704D5A860606D40F0F4
:100CC0000400606594F85C1010208840304218D011
:100CD00021680968090714D5A860206801684903DC
:100CE00004D50068000308D5A16C07E00168C905B8
:100CF00003D4016821F008010160216C09B120468C
:100D0000884794F85C1020208840304231D0216818
:100D10000968C9062DD5A86094F835000528206813
:100D2000016806D0490347D5006800031DD4616CF3
:100D30001CE021F0160101602068416921F080016A
:100D40004161206C08B9A06C20B12068016821F0D5
:100D50000801016094F85C103F208840A86084F886
:100D6000358084F83490216D1FE0E16B09B1204695
:100D70008847606D00282BD0606DC00714D0052017
:100D800084F835002068016821F0010101600098B5
:100D9000401C0090B84203D820680068C007F6D114
:100DA00084F8358084F83490E16C002910D001B0CB
:100DB0002046BDE8F04308470168C905D5D401685D
:100DC00021F01001016084F8358084F83490CCE77C
:100DD000BDE8F8830C0000202DE9F041044600F046
:100DE000A7F906465CB1022084F83500002584F896
:100DF00034502068016821F0010101600DE00120FC
:100E0000BDE8F08100F094F9801B052805D9202069
:100E10006065032084F83500F2E720680068C007A9
:100E2000F0D12268116820480140D4E90103184339
:100E3000D4E903363343184363691843A36918435D
:100E4000E3691843236A18430843616A042903D1FC
:100E5000D4E90B1319430843106020684069666A9F
:100E600020F0070130460E43012704280CD1A06A68
:100E70000643E06A40B12046FFF738FB20B140202E
:100E8000606584F83570BAE7206846612046FFF750
:100E900019FB94F85C203F2191408160656584F8DE
:100EA00035700020ACE700003F8010F02DE9F041E4
:100EB0000446866D90F83400002501280DD00120ED
:100EC00084F8340094F835700020012F07D084F89E
:100ED000340002252846BDE8F0810220FBE7022706
:100EE00084F8357060652046FFF72AFB94F85C10A3
:100EF0003F208840B0602068016841F01601016021
:100F0000206C20B12068016841F008010160206870
:100F1000016841F001010160DCE700002DE9F84FB4
:100F2000DFF8BCA10022012503264FF00F090AF1CA
:100F3000040BAAF1040E00BF0B6805FA02F423406B
:100F4000A34270D10F7907F00307012F01D0022FC0
:100F500016D187684FEA420806FA08FC27EA0C0710
:100F6000D1F80CC00CFA08FC4CEA070CC0F808C019
:100F70004768A7430C79C4F3001494403C43446091
:100F80000C79E443A4070AD0C4684FEA420C06FA7D
:100F90000CF7BC438F6807FA0CF72743C7600C793E
:100FA00004F00304022C12D1D40800EB840CDCF80A
:100FB00020405707FF0E09FA07F824EA0804D1F881
:100FC000108008FA07F848EA0408CCF82080046882
:100FD0004FEA420C06FA0CF7BC430F7907F00307FF
:100FE00007FA0CF7274307604C6814F4403F70D0B1
:100FF0003C4C276847F480472760246822F00307A9
:1010000004F480440094384C07EB040CDCF80848E6
:1010100097074FEA177809FA08F7BC43334FB842ED
:1010200002D1002724E054E0314FB84201D101271A
:101030001EE0304FB84201D1022719E02E4FB842CE
:1010400001D1032714E02D4FB84201D104270FE04E
:101050002B4FB84201D105270AE02A4FB84201D1EF
:10106000062705E0284FB84201D1072700E00827EE
:1010700007FA08F72743CCF80878DAF80040574613
:10108000D1F804C09C435FEACC2C00D51C433C60E3
:10109000DBF800405F46D1F804C09C435FEA8C2C2B
:1010A00000D51C433C60DEF800407746D1F804C010
:1010B0009C435FEA8C3C00D51C433C60084F083FD2
:1010C0003C68D1F804C09C435FEACC3C00D51C438B
:1010D0003C60521C102AFFF42FAFBDE8F88F0000CF
:1010E000083C01404438024000300140000002400A
:1010F0000004024000080240000C024000100240C0
:101100000014024000180240001C02400069084020
:1011100000D001207047426921EA02030A4043EAF5
:101120000241816170470AB1816170470904FBE7A0
:101130000148806870470000000000200248816874
:101140000278114481607047000000200B4810B500
:10115000016841F400710160016841F4806101603F
:10116000016841F480710160032000F06FF80F20E6
:1011700000F006F800F024F8002010BD003C02400A
:1011800070B50D4D04464FF47A712878B1FBF0F03C
:101190000A490968B1FBF0F000F00AFB48B9102CCD
:1011A00007D200222146501E00F030F800206C606B
:1011B00070BD012070BD0000000000200C00002068
:1011C0000A4808B5016841F480410160006800F4F4
:1011D000804000900548001F016841F08051016087
:1011E000006800F08050009008BD000044380240C4
:1011F000002809DB00F01F02012191404009800016
:1012000000F1E020C0F8001170470000F0B40E4B70
:101210001B680C46C3F30223C3F10705042D00D954
:101220000425191D072901D2002300E0DB1E012639
:1012300006FA05F1491E214099409E40761E16404F
:101240003143F0BC01F0AEBF0CED00E0064900F008
:10125000070208684FF6FF03184040EA0220034ADD
:1012600010430860704700000CED00E00000FA0534
:101270002DE9F0470E46050065D0DFF81481D8F857
:101280000000F7B200F00700B04207D288F8007003
:10129000D8F8000000F00700B04254D128683D4C57
:1012A000810712D5400703D5206840F4E050206044
:1012B0002878000703D5206840F46040206020684B
:1012C000A96820F0F000084320602878C0072DD0DE
:1012D000304968680839012812D0022813D0032841
:1012E00011D00968890700292DDA216821F003014E
:1012F00001432160FFF71CFF814641F2883A0EE06E
:1013000009688903EFE709688901ECE7FFF710FF37
:10131000A0EB0901514502D90320BDE8F087206800
:10132000696800F00C00B0EB810FEFD1D8F8001025
:10133000404601F00701B14207D90770006800F08C
:101340000700B04201D00120E7E72878400705D523
:101350002068E96820F4E0500843206028780007FE
:1013600006D52068296920F4604040EAC100206069
:1013700000F038F82168084AC1F30311515CC840F5
:101380000649086006480068FFF7FAFE0020C4E737
:10139000003C024008380240CC3400080C00002019
:1013A000040000200448054900680968044AC1F3A4
:1013B0008221515CC84070470C0000200838024070
:1013C000DC3400080448054900680968044AC1F390
:1013D0004231515CC84070470C0000200838024080
:1013E000DC340008154810B5006810F00C021448F1
:1013F00013D04110042A0FD0082A0ED10F4C241FFD
:101400002268236802F03F025B0207D52068C0F320
:101410008810A0FB010106E0084610BD2168C1F359
:101420008811A1FB00010023FEF7CCFE2168C1F367
:101430000141491C4900B0FBF1F010BD08380240E1
:101440000024F4002DE9F84F04006ED02078DFF876
:101450004C93C007A9F104054AD009F104000168C2
:10146000C1F38101012908D00068C0F3810002287E
:101470000AD1D9F80000400206D52868800337D584
:1014800060680028E1D033E06068B0F5803F10D09C
:10149000B0F5A02F286810D020F48030286028688C
:1014A00020F4802028606068A8B1FFF741FE06465E
:1014B0000DE0286840F48030F4E740F48020286094
:1014C000F7E700BFFFF734FE801B642873D8286855
:1014D0008003F7D50CE0FFF72BFE064605E000BFC2
:1014E000FFF726FE801B6428F0D828688003F7D415
:1014F0002078DFF8AC8280074FF0000A3ED5A7487D
:10150000001D016811F00C0F08D00068C0F38100C5
:1015100002280BD1D9F80000400207D428688007C0
:1015200016D5E068012800D112E033E1E068B8B1D7
:101530000120C8F80000FFF7FBFD064605E000BFEC
:10154000FFF7F6FD801B0228C0D828688007F7D572
:101550002868216920F0F80040EAC10028600DE009
:10156000C8F800A0FFF7E4FD064604E0FFF7E0FD41
:10157000801B02281FD828688007F7D4207800072E
:1015800022D5864F87486169703771B101210160AA
:10159000FFF7CEFD064604E0FFF7CAFD801B0228D8
:1015A00009D838688007F7D50EE0C0F800A0FFF72B
:1015B000BFFD064605E082E0FFF7BAFD801B02286A
:1015C0007DD838688007F7D42078400768D5DFF8E1
:1015D000CCB100270BF13C0BDBF80000C0000BD4B2
:1015E000DBF8001041F08051CBF80010DBF8000070
:1015F000012700F0805000906B4E3068C00510D479
:10160000306840F480703060FFF792FD009005E094
:10161000FFF78EFD0099401A022850D83068C005A7
:10162000F6D55E4EA0686C3601280FD005283068CC
:1016300010D020F001003060306820F004003060ED
:10164000A068B8B1FFF774FD00900FE0306840F07B
:101650000100F4E740F004003060F7E7FFF768FDB1
:101660000099411A41F28830814266D8306880077B
:10167000F4D50EE0FFF75CFD009007E0FFF758FDA2
:101680000099411A41F28830814256D8306880076B
:10169000F4D42FB1DBF8001021F08051CBF800100A
:1016A000A069C8B33D49091D0968C1F38101022938
:1016B0004AD00228504607D0C8F8600000E03CE05D
:1016C000FFF736FD04463BE04746C8F86000FFF7E9
:1016D0002FFD064605E000BFFFF72AFD801B02280C
:1016E0002BD828688001F7D4D4E907010843A16A00
:1016F0002E4A490802EB0141626A41EA821108431D
:1017000094F82C1040EA0161C9F8001001203866F5
:10171000FFF70EFD044606E03EE000BFFFF708FDC0
:10172000001B022809D828688001F7D534E000BFE3
:10173000FFF7FEFC001B022802D90320BDE8F88F4A
:1017400028688001F4D427E00128F7D0D9F80000F8
:10175000E26900F4800191421CD1226A00F03F014D
:10176000914217D147F6C071626A0140B1EB821F06
:1017700010D1A26A4FF0FF3300F4403103EB520264
:10178000B1EB024F06D194F82C1000F07060B0EB72
:10179000016F01D00120D1E70020CFE704380240DB
:1017A00000004742800E4742007000400000FFFFEB
:1017B00010B5401EB0F1807F01D3012010BD4FF065
:1017C000E02460610F21601701F0ECFC0020A061B3
:1017D00007202061002010BD7047704770B590F859
:1017E0003C20012A32D0012480F83C40022280F8BB
:1017F0003D2003685A689D6822F070060A683243EB
:101800005A60134B02689A4214D0B2F1804F11D043
:10181000104B9A420ED0104B9A420BD00F4B9A426B
:1018200008D00F4B9A4205D00E4B9A4202D00E4B75
:101830009A4204D1496825F080031943916080F8E9
:101840003D40002180F83C10084670BD022070BD6C
:10185000000001400004004000080040000C00406F
:1018600000040140004001400018004010B5040091
:1018700003D094F83D0010B107E0012010BD002016
:1018800084F83C00204600F01FF8022084F83D0058
:10189000211D206801F076F9012084F8460084F8C3
:1018A0003E0084F83F0084F8400084F8410084F84A
:1018B000420084F8430084F8440084F8450084F82A
:1018C0003D00002010BD000008B500680B498842AB
:1018D00012D10B48016841F0080101600068002244
:1018E00000F00800009011463220FFF78FFCBDE8A1
:1018F00008403220FFF77CBC08BD0000000C00400F
:101900004038024090F83D10012901D00120704775
:10191000022180F83D100168CA6842F00102CA60E5
:1019200000681149884214D0B0F1804F11D00F499E
:1019300088420ED00E4988420BD00E49884208D00A
:101940000D49884205D00D49884202D00C49884291
:1019500004D1816801F00701062903D0016841F034
:1019600001010160002070470000014000040040B8
:1019700000080040000C004000040140004001400D
:101980000018004070B5044690F83C00002501287E
:1019900017D0012684F83C60022084F83D002068BE
:1019A000826822F0770222F47F4282600868502821
:1019B00038D00DDC20284FD005DC90B3102811D191
:1019C0004AE0022070BD302846D040280AD13BE0D2
:1019D00060282FD070280DD0B0F5805F03D0B0F50F
:1019E000005F12D0012584F83D60002084F83C009F
:1019F000284670BDCB68D1E90121206801F03BF990
:101A00002068816841F0770109E0CB68D1E90121C4
:101A1000206801F030F92068816841F480418160DC
:101A2000E1E719E0CA684968206801F036F95021F9
:101A3000206806E0CA684968206801F03FF9602123
:101A4000206801F022F9CEE7CA684968206801F0F1
:101A500024F940212068F4E7226801461046F0E7A7
:101A60002DE9F0410D46040003D094F83D0018B173
:101A700008E00120BDE8F081002084F83C00204609
:101A800000F040F8022084F83D002068816844F2AC
:101A9000070291438160211D206801F073F82268DC
:101AA00090689169166A2B68AF69034340F203306E
:101AB000814341EA0721A868EF6908434FF6FC41DA
:101AC0008843E96840EA0720014328692F6A00013A
:101AD00040EA0730084369686D6926F0AA0646EABD
:101AE0000515294393602268906154F8460B016202
:101AF000012004F81F09E0752076E0762077A075B4
:101B00000020B7E7F0B587B0044614216846FEF719
:101B100091FB3A4B256800223949022401263948B5
:101B20009D4214D1364B14331D6845F001051D60EC
:101B30001B6803F0010305930B6843F001030B607E
:101B4000096801F0010105914FF4407130E02C4B20
:101B50001033B5F1804F1AD02B4FC026BD4231D182
:101B60001D6845F002051D601B6803F00203059324
:101B70000B6843F001030B6009680096CDE9014250
:101B800001F00101CDE904410392694616E01D68A8
:101B900045F001051D601B6803F0010305930B6808
:101BA00043F001030B60096801F001010591032175
:101BB0000091CDE90142CDE903266946FFF7AEF970
:101BC00007B0F0BD11488542FAD1186840F0040012
:101BD0001860186800F004000590086840F00200E2
:101BE000086008680096CDE9014200F00200CDE9E6
:101BF0000440694603920648E0E700000000014007
:101C0000303802400000024000040040000800405C
:101C10000004024070B590F83E60044690F83F50D2
:101C200090F8423090F84320022021B104290ED0D0
:101C3000012E1BD114E0012E18D1012B16D184F8EE
:101C40003E0084F8420001220021206820E0012D9E
:101C50000CD1012A0AD184F83F0084F8430014E033
:101C6000012D03D1012B01D1012A01D0012070BD2A
:101C700084F83E0084F83F0084F8420084F8430072
:101C800001220021206800F0E9FF012204212068E0
:101C900000F0E4FF2068016841F0010101600020CC
:101CA00070BD70472DE9F04104460068C6680569BB
:101CB0004FF00007A90713D5B10711D5F91E01612F
:101CC00001202077206880698007204602D0FFF736
:101CD000E8FF04E000F07EF8204600F07CF827776B
:101CE000680716D5700714D521686FF004000861E5
:101CF000022020772068806910F4407F204602D0BF
:101D0000FFF7CFFF04E000F065F8204600F063F82D
:101D10002777280715D5300713D521686FF00800FD
:101D20000861042020772068C0698007204602D01F
:101D3000FFF7B7FF04E000F04DF8204600F04BF845
:101D40002777E80616D5F00614D521686FF0100045
:101D50000861082020772068C06910F4407F204681
:101D600002D0FFF79EFF04E000F034F8204600F0B8
:101D700032F82777E80708D0F00706D021686FF01F
:101D800001000861204600F027F8280608D5300633
:101D900006D521686FF0800008612046FFF71CFD22
:101DA000680608D5700606D521686FF04000086106
:101DB000204600F06BF8A8060AD5B00608D52168C1
:101DC0006FF0200008612046BDE8F041FFF705BD37
:101DD000BDE8F08170477047F8B500682149884236
:101DE0003ED1214C0025214E2078401CC0B22070ED
:101DF0000A2804D304213046FFF78DF92570FEF739
:101E0000FDFB4FF400611A48FFF780F9164C4FF4C0
:101E10000071641C20703046FFF778F9154E607031
:101E20004FF400513046FFF771F9A070022130469F
:101E3000FFF76CF9E0702078002811D1104E0E4C9D
:101E400000940E4B32780F490F4800F0D3FD002864
:101E500006D00A4835700560456085602560A5801C
:101E6000F8BD0000000C00403800002000080240CF
:101E70000000024000040240210000203305002041
:101E8000200000201800002028000020704738B5EE
:101E9000044690F84200202801D0022038BD61B1EC
:101EA0005AB10120206300206063204601F0DAF877
:101EB0000028F3D1216B012901D0012038BD216810
:101EC0000A684968009121680C3151E8002F42F0FE
:101ED000100241E80023002BF5D138BD2DE9F04771
:101EE0000D4681460068304988425BD1002080461B
:101EF0002E4C07E0215CAA290ED0BB2917D0CC2993
:101F000031D0401CA842F5DB4846BDE8F0474FF40D
:101F100080722649FFF7BBBF411CA942F4DA2118A1
:101F2000234B4A781A70A1F80080801CEAE700F180
:101F30000D018A46A942E7DA421CDFF878C0002189
:101F400001EB410600236644A75CF754521C5B1C5E
:101F5000032BF9DB491C0429F2DB20440D21FEF799
:101F600069F95046CEE7C11DA942CDDADFF840C07D
:101F7000411C00230CF1010C03EB430600226644D4
:101F8000675CB754491C521C032AF9DB5B1C022B0B
:101F9000F2DB2218C01DC2F80080A2F8048082F88B
:101FA0000680AFE7BDE8F08700440040330400201E
:101FB000200000203305002070470000F8B50168BC
:101FC00004460868CA684B6910F00F0F4FF000050F
:101FD00059D003F0010602F49077374365D0C1076A
:101FE00005D0D10503D5616C41F001016164410761
:101FF00005D5D90703D0616C41F002016164810706
:1020000005D5D90703D0616C41F004016164010773
:1020100007D502F02001314303D0616C41F0080183
:102020006164616C00293AD0800604D5900602D51F
:10203000204600F02FFF20684069616CC0F38010DB
:10204000090700D460B3204600F0EFFE2068406925
:10205000400621D52068143050E8001F21F04001CF
:1020600040E80012002AF5D1E06BA8B16E49016585
:10207000E06BFEF7CEFD002811D0E06B016D01B0E2
:10208000BDE8F040084783060FD593060DD52046DE
:10209000BDE8F84000F0FEBE2046FFF78DFFF8BD1A
:1020A0002046FFF789FF6564F8BD266B2023012ECB
:1020B0007DD1C6067BD5D60679D5086848680090DC
:1020C00048694FF00206400641D5E16B0868406858
:1020D0000004000CE8D0A28D8242E5D9E085C869F1
:1020E000B0F5807F2DD020680C3050E8001F21F41F
:1020F000807140E80012002AF5D12068143050E8C1
:10210000001F21F0010140E80012002AF5D12068EB
:10211000143050E8001F21F0400140E80012002A6E
:10212000F5D184F84230256320680C3050E8001F58
:1021300021F0100140E80012002AF5D1E06BFEF713
:102140001FFD6663A08DE18D401A81B22AE0A08D4B
:10215000E18D401A81B2E08D0028A5D00029A3D0DE
:1021600022680C3252E8000F20F4907042E8000719
:10217000002FF5D12068143050E8002F22F0010222
:1021800040E80027002FF5D184F84230256320680D
:102190000C3050E8002F22F0100240E80023002B02
:1021A000F5D166632046FFF799FEF8BDFFE7050607
:1021B0002BD5150629D594F841002128F5D1A06822
:1021C000B0F5805F01D12069B0B1206A411C216265
:1021D000216800784860E08C401E0004000CE08418
:1021E000E3D12068C16821F08001C1602068C16826
:1021F00041F04001C160D8E7206A0088C0F30800C0
:102200004860206A801C2062E5E74006CDD5500674
:10221000CBD5CA68204622F04002CA6084F841301B
:1022200000F078F9C1E70000E12C000870B5040067
:1022300004D094F84100002510B106E0012070BDE3
:1022400084F84050204600F023F8242084F8410010
:102250002068C16821F40051C160204600F07CFE76
:102260002068016921F4904101612068416921F0F1
:102270002A0141612068C16841F40051C160656470
:10228000202084F8410084F842006563002070BD7E
:102290002DE9F04387B0064614216846FDF7CAFFD2
:1022A0004E484D4D316802220323002407154FF09C
:1022B0004009A9424ED1494910310D6845F4003515
:1022C0000D60096801F400310591016841F00101D8
:1022D00001600068694600F0010005900C208DE85F
:1022E00015000720CDE903303D48FEF717FE3E4DAF
:1022F0003C484FF000682860C5E90184C5E9034700
:1023000080156C61C5E906402C6228466C62FEF7B8
:1023100063FD08B1FEF729F9F563AE63324D31482C
:1023200060351830C5E903476C61AC61EC612C6223
:102330006C6285E801032846FEF74EFD08B1FEF702
:1023400014F9B563002211462620AE63FEF75EFF46
:1023500026203BE0254DA9423AD1204914310D6891
:1023600045F020050D60096801F020010591016824
:1023700041F0040101600068694600F00400059026
:10238000C0208DE815000820CDE903301848FEF77D
:10239000C5FD154D1748C0352860C5E903476C6178
:1023A000AC61EC612C624FF020606C62C5E9010900
:1023B0002846FEF711FD08B1FEF7D7F8B5630022F5
:1023C00011464720AE63FEF721FF4720FEF710FFBE
:1023D00007B0BDE8F0830000004400403038024000
:1023E0000000024088600240E40200200014014026
:1023F00000080240A0640240704770472DE9F8438E
:10240000044690F84100984616460D46202802D012
:102410000220BDE8F88385B17EB1002060642120F0
:1024200084F84100FEF784FEA6848146E684A06815
:102430002027B0F5805F02D003E00120E9E72069A2
:1024400010B12E4600250EE000260CE0802120462B
:1024500000F050FEA8B9C6B116F8010B216848601B
:10246000E08C401EE084E08C4B464FF00002CDF83B
:1024700000800028EAD14FF04001204600F03AFEEB
:1024800040B184F841700320C3E735F8020BC0F374
:102490000800E3E784F841700020BAE770B504460D
:1024A00090F84100202801D0022070BD49B342B30A
:1024B0002162A284E28400206064212384F84130F8
:1024C000A56B114BEB63A56B104B2B64A56B104BED
:1024D000EB64A36B1865256813462A1DA06BFEF7F5
:1024E000E5FC21686FF0400008602068143050E877
:1024F000001F41F0800140E80012002AF5D10020C1
:1025000070BD012070BD0000DF2D0008212E0008E5
:10251000F12C000870477047FEE7000010B53C2121
:102520000F48FFF777FB3C210E48FFF773FB3C2178
:102530000D48FFF76FFB3C210C48FFF76BFB0C4885
:10254000FFF7E0F905220B490B48FEF76FFABDE8EB
:1025500010404FF4807209490948FFF798BC000009
:10256000EC000020340100207C010020C401002088
:102570000C0200200404002044000020330400204A
:10258000540200207FB500212C4800910191029156
:10259000294A0391026001244FF480320461C0E9AA
:1025A0000121047680F82010254AC0E90A2105257A
:1025B000C561C16080F830404461FEF7B1F908B1EF
:1025C000FDF7D3FF0A20CDE90004062002906946FA
:1025D0001A48FEF76DF808B1FDF7C7FF0B20009011
:1025E0000220019069461548FEF762F808B1FDF730
:1025F000BCFF0320CDE9005069461048FEF758F8AB
:1026000008B1FDF7B2FF04200090019069460B4825
:10261000FEF74EF808B1FDF7A8FF0D20CDE9000543
:102620000720029069460548FEF742F8002801D0CD
:10263000FDF79BFF7FBD000000200140440000200B
:102640000100000F194808B5016841F480010160DC
:10265000016801F480010091016841F400110160FA
:102660000068002200F40010009011461020FEF7D0
:10267000CDFD1020FEF7BCFD002211461120FEF713
:10268000C5FD1120FEF7B4FD002211463820FEF7EB
:10269000BDFD3820FEF7ACFD002211464520FEF7B7
:1026A000B5FDBDE808404520FEF7A2BD3038024028
:1026B00070B586B014216846FDF7BCFD254800249E
:1026C000016841F080010160016801F0800105911D
:1026D000016841F004010160016801F00401059105
:1026E000016841F001010160016801F001010591FB
:1026F000016841F0020101600068174E00F002001D
:102700004FF482750590012229463046FEF70BFDF5
:1027100000950125CDE90154694630460394FEF742
:10272000FDFB4AF202008DE8310069460B48FEF7D6
:10273000F5FB68028DE8310069463046FEF7EEFB96
:10274000E8028DE8310069460548FEF7E7FB06B070
:1027500070BD000030380240000802400004024012
:102760000000024010B58CB024216846FDF762FDE0
:1027700000241748099415490A94C0E900144FF63B
:10278000FF71C0E902410461446184610320CDE925
:1027900000040120CDE902040A210491CDE905409D
:1027A000CDE9074169460A48FFF75AF908B1FDF734
:1027B000DCFE099409A906480A94FFF70FF80028DF
:1027C00001D0FDF7D2FE0CB010BD000000000140AA
:1027D000EC00002010B58CB024216846FDF72AFDDE
:1027E0000024164809944FF080410A94C0E900146F
:1027F0004FF6FF71C0E90241046184610320CDE915
:1028000000040120CDE902040A210491CDE905402C
:10281000CDE9074169460948FFF722F908B1FDF7FC
:10282000A4FE099409A905480A94FEF7D7FF0028D9
:1028300001D0FDF79AFE0CB010BD0000340100205D
:1028400010B58CB024216846FDF7F4FC002416482E
:10285000099414490A94C0E900144FF6FF71C0E9C5
:102860000241046184610320CDE900040120CDE927
:1028700002040A210491CDE90540CDE907416946EA
:102880000948FFF7EDF808B1FDF76FFE099409A9B3
:1028900005480A94FEF7A2FF002801D0FDF765FE67
:1028A0000CB010BD000400407C01002010B58CB0BD
:1028B00024216846FDF7BEFC0024164809941449FB
:1028C0000A94C0E900144FF6FF71C0E902410461A7
:1028D00084610320CDE900040120CDE902040A212E
:1028E0000491CDE90540CDE9074169460948FFF764
:1028F000B7F808B1FDF739FE099409A905480A940B
:10290000FEF76CFF002801D0FDF72FFE0CB010BDC4
:1029100000080040C401002010B586B0002416480D
:102920000094019402940394049412490594016064
:102930005321C0E901141149C0E903148461FEF771
:1029400095FF08B1FDF711FE4FF4805000906946E5
:102950000948FFF717F808B1FDF707FE049404A92A
:1029600005480594FEF73AFF002801D0FDF7FDFD6C
:1029700006B010BD000C00400C0200209F86010034
:102980000C4810B50A4901604FF41651416000210E
:1029900081600C22C160C0E904128161C161FFF74E
:1029A00045FC002803D0BDE81040FDF7DEBD10BD9A
:1029B00000440040540200200C4810B50A49016050
:1029C0004FF416514160002181600C22C160C0E9C2
:1029D00004128161C161FFF729FC002803D0BDE822
:1029E0001040FDF7C2BD10BD001401409C02002044
:1029F000FEE7FEE72DE9F0410E4607461C469046ED
:102A00004FF400412E48069DFEF780FB012804D1BB
:102A10002C4890F84100202802D00020BDE8F08129
:102A2000294AAA201070002037F810100B0A02EB78
:102A300040014B7017F81030401CC0B28B70042856
:102A4000F2D3002036F810100B0A02EB40014B7253
:102A500016F81030401CC0B28B720428F2D382F8F2
:102A600011800021002001EB4106331916441F5C40
:102A700006EB000C401CC0B28CF812700328F6D391
:102A8000491CC9B20429EDD30021002001EB410407
:102A9000631914441E5C2718401CC0B2BE7703287B
:102AA000F8D3491CC9B20229EFD3BB2082F8240015
:102AB000252205490348FFF7F1FC0120AEE700009D
:102AC000000402409C0200200E0400207047704762
:102AD000FEF734BB30B593B030216846FDF7AAFB52
:102AE00014210CA8FDF7A6FB1D480025016841F044
:102AF00080510160006800F0805011901948016811
:102B000041F4804101600068022400F4804011908B
:102B100001200090000401908001CDE906400420CE
:102B20000890A820CDE9090403200B906846FEF721
:102B300089FC08B172B6FEE70CA90F2081E83100CC
:102B40004FF4A0500F904FF48050109005210CA826
:102B5000FEF78EFB002801D072B6FEE713B030BD41
:102B600040380240007000400248016841F47001A2
:102B70000160704788ED00E00148FFF793B800005E
:102B80000C020020F0B50268294C2A4D2A4E2B4F2A
:102B90002B4B4FF0804CA04209D0604507D0A84293
:102BA00005D0B04203D0B84201D0984204D122F0FF
:102BB000700E4A6842EA0E02A0421BD0604519D04E
:102BC000A84217D0B04215D0B84213D0984211D0C5
:102BD0001C4DA8420ED01C4DA8420BD01B4DA84244
:102BE00008D01B4DA84205D01A4DA84202D01A4D5C
:102BF000A84203D122F44075CA682A434D6922F0E5
:102C000080022A4302608A68C2620A688262A04225
:102C100001D0984201D10969016301214161016933
:102C2000C90703D0016921F001010161F0BD000075
:102C3000000001400004004000080040000C00407B
:102C400000040140004001400044014000480140B0
:102C500000180040001C00400020004010B501F0AA
:102C60001F030121046A99408C430462016A9A405F
:102C70001143016210BD10B5846842EA032224F4B6
:102C80007F440A432243826010BD826822F07002B2
:102C90000A4342F007018160704710B5036A046A75
:102CA00024F001040462846924F0F00444EA02146C
:102CB00023F00A020A438461026210BD10B5036A60
:102CC000046A24F010040462846923F0A00324F44D
:102CD000704444EA023243EA01118261016210BD8C
:102CE00010B5806B0021C185C184FFF765F910BD67
:102CF00070B5846B2068406994F84110C0F3C0102F
:102D00000025212904D118B1E584204600F0B4F84B
:102D10002068406994F84210C0F38010222904D141
:102D200018B1E585204600F080F8606C40F0100096
:102D300060642046FFF740F970BD10B50146806B16
:102D4000096809684FF00002C9052ED4C2850168E0
:102D50000C3151E8003F23F4807341E80034002C2B
:102D6000F5D10168143151E8003F23F0010341E837
:102D70000034002CF5D10168143151E8003F23F0F4
:102D8000400341E80034002CF5D1202180F84210A6
:102D9000016B012909D101680C3151E8003F23F092
:102DA000100341E80034002CF5D14263016B012986
:102DB00002D0FFF721FB10BD818DFFF78FF810BD0A
:102DC00010B5806B01214163016B012902D0FFF72F
:102DD00014FB10BD818D4908FFF780F810BD10B5B8
:102DE0000146806B09680968C90516D40021C184B1
:102DF0000168143151E8002F22F0800241E80023DD
:102E0000002BF5D101680C3151E8002F42F040024F
:102E100041E80023002BF5D110BDFFF77BFB10BD6F
:102E200010B5806BFFF777FB10BD01680C3151E8DE
:102E3000002F22F4907241E80023002BF5D10168A5
:102E4000143151E8002F22F0010241E80023002B49
:102E5000F5D1016B012909D101680C3151E8002F2E
:102E600022F0100241E80023002BF5D1202180F848
:102E7000421000210163704701680C3151E8002FB6
:102E800022F0C00241E80023002BF5D1202180F878
:102E90004110704708B590F84210222901D0022055
:102EA00008BD82684FF480539A4201D1016921B173
:102EB000816A9A421BD04AB10AE00268816A52686C
:102EC000C2F308020A80816A891C08E0026972B1B3
:102ED0000268526802F07F020A70816A491C8162AE
:102EE000C18D491E0904090CC18503D01BE002688D
:102EF0005268F1E70168CA6822F02002CA600168DE
:102F0000CA6822F48072CA6001684A6922F001022C
:102F10004A61202180F8421000214163026B012A9E
:102F200003D0FFF769FA002008BD016301680C3186
:102F300051E8002F22F0100241E80023002BF5D1C8
:102F400001680A68D20602D50A6849680091818D35
:102F5000FEF7C4FFE7E7000070B5044600680169AA
:102F6000E26821F44051114301612169A068E269DE
:102F700008436169114308432168CA6849F20C6338
:102F80009A430243CA6020684169A26921F44071F2
:102F90001143416131492068884202D0304988425A
:102FA00002D1FEF70FFA01E0FEF7FCF9E269002317
:102FB000192164253226B2F5004F626828D0A0FBA3
:102FC0000101930F9200FDF7FDF80146B0FBF5F00B
:102FD0006FF01802504301EB800006EB0010B0FBCD
:102FE000F5F000F0F002B1FBF5F002EB0012B1FBDE
:102FF000F5F06FF01803584301EB800006EB00106A
:10300000B0FBF5F000F00F0021681044886070BD3F
:10301000A0FB010192185B41FDF7D4F80146B0FB1B
:10302000F5F00201B1FBF5F06FF01803584301EB26
:10303000800006EBC000B0FBF5F000F0F80002EBFA
:103040004002B1FBF5F0584301EB800006EBC000F5
:10305000B0FBF5F000F00700D6E7000000100140DB
:103060000014014038B58162044682850020134671
:103070006064222284F84220E56B1B4AEA63E56B18
:103080001A4A2A64E56B1A4AEA64E26B10650A463A
:103090002168E06B091DFDF709FF206801684068A1
:1030A0000090206948B120680C3050E8001F41F4BE
:1030B000807140E80012002AF5D12068143050E8F1
:1030C000001F41F0010140E80012002AF5D12068FC
:1030D000143050E8001F41F0400140E80012002A7F
:1030E000F5D1002038BD00003B2D0008C12D00089F
:1030F000F12C00082DE9F843984617460D46044682
:10310000089E24E0701C22D0FEF712F8A0EB080005
:10311000B0421AD8CEB12068C168490717D5802DB2
:1031200015D0402D13D00168C94309070FD4016899
:103130000025406800902046FFF777FE0820606475
:1031400084F840500120BDE8F8830320FBE72068A5
:10315000006835EA000004D00020B842D2D0002038
:10316000F1E70120F9E700000148FEF727BF000062
:10317000540200200148FEF721BF00009C020020FD
:10318000FEE700000FB4054B10B503A9044A0298EE
:1031900000F028F810BC5DF814FB0000393300087B
:1031A000400000200907090E002804DB00F1E020A0
:1031B00080F80014704700F00F0000F1E02080F864
:1031C000141D704702E008C8121F08C1002AFAD176
:1031D00070477047002001E001C1121F002AFBD197
:1031E000704700002DE9FF4F89B09B46044600253B
:1031F00006E025280BD05A460B999047641C6D1C9D
:1032000020780028F5D10DB02846BDE8F08F0027C2
:10321000B8460122474900E0074314F8013F203B2C
:1032200002FA03F00842F7D120782E2819D114F8B9
:10323000010F47F004072A280ED06FF02F022078E4
:10324000A0F1300109290CD808EB880102EB4101FB
:1032500000EB0108641CF2E70A98641C50F8048B28
:103260000A9020780028CED0642808D0692806D09B
:1032700075281ED05A460B9990476D1C58E00A9944
:103280004FF00A0901C90A91002802DA40422D21B3
:1032900002E0390504D52B218DF82010012103E02F
:1032A000F90704D02021F7E78A4608AE0DE0002197
:1032B000FAE70A994FF00A0901C90A91F7E7494666
:1032C000FCF7C3FF303106F8011D0028F7D1ADEB44
:1032D000060000F12009780701D44FF00108C84525
:1032E00002DDA8EB090000E000208046002706E090
:1032F00008A85A46C05D0B9990476D1C7F1C574526
:10330000F6DB04E030205A460B9990476D1CB8F16B
:103310000001A8F10108F5DC05E016F8010B5A469A
:103320000B9990476D1CB9F10001A9F10109F4DC7A
:10333000641C65E70928010013B54FF6FF730122ED
:1033400069460248FFF75AF800981CBD5402002055
:10335000FDF7FCFEFFF7BEFBFFF7AAF9FFF772F9D6
:10336000FFF738FAFFF70EF9FFF726FBFFF7FAF938
:10337000FFF766FAFFF79AFAFFF7CEFAFFF700FBBE
:10338000FFF7CCF81A4C1B4D1B4E00BFB4F90010D0
:103390001AA0FFF7F7FEB4F902101DA0FFF7F2FE26
:1033A000B4F904101FA0FFF7EDFEB4F9061022A037
:1033B000FFF7E8FEB5F9001024A0FFF7E3FEB5F92A
:1033C000021027A0FFF7DEFEB5F9041029A0FFF7D1
:1033D000D9FEB5F906102CA0FFF7D4FE31782FA046
:1033E000FFF7D0FE317832A0FFF7CCFECEE7000029
:1033F0002800002018000020100000207061676580
:10340000312E6E302E76616C3D2564FFFFFF00008B
:1034100070616765312E6E312E76616C3D2564FFDB
:10342000FFFF000070616765312E6E322E76616C91
:103430003D2564FFFFFF000070616765312E6E332C
:103440002E76616C3D2564FFFFFF000070616765AB
:10345000322E6E302E76616C3D2564FFFFFF00003A
:1034600070616765322E6E312E76616C3D2564FF8A
:10347000FFFF000070616765322E6E322E76616C40
:103480003D2564FFFFFF000070616765322E6E33DB
:103490002E76616C3D2564FFFFFF00004D61696E73
:1034A0002E6E302E76616C3D2564FFFFFF0000001C
:1034B0004D61696E2E6A302E76616C3D2564FFFF8A
:1034C000FF000000000610160006101600000000A5
:1034D00000000000010203040607080900000000C4
:1034E00001020304666606410000C8429A99014140
:1034F0000000B442CDCCFC400000A04214AEF74026
:1035000000008C423333F340000070420000F04072
:1035100000004842CDCCEC40000020429A99E9409E
:103520000000F041E17AE4400000A0419A99D940BE
:10353000000020410000C040000000005C35000891
:103540000000002044000000C4310008A03500083D
:1035500044000020FC140000D431000801000000E9
:1035600010000000000000000024F4000000000033
:10357000000000000000000000000000000000004B
:10358000000000000000000000000000000000003B
:10359000000000000000000000000000000000002B
:040000050800018965
:00000001FF
